:020000040800F2
:100000008804002045010008F3010008EB01000806
:10001000EF010008DD0100080D05000800000000E8
:10002000000000000000000000000000F7010008D0
:10003000E101000800000000F50100089503000838
:100040005F0100085F0100085F0100085F01000810
:100050005F0100085F0100085F0100085F01000800
:100060005F0100085F0100085F0100085F010008F0
:100070005F0100085F0100085F0100085F010008E0
:100080005F0100085F0100085F0100085F010008D0
:100090005F0100085F0100085F0100085F010008C0
:1000A0005F0100085F0100085F0100085F010008B0
:1000B000F90300085F0100085F0100085F01000804
:1000C0005F0100085F0100085F0100085F01000890
:1000D0005F0100085F0100085F0100085F01000880
:1000E0005F0100085F0100085F0100085F01000870
:1000F0005F0100085F0100085F0100085F01000860
:100100005F0100085F0100085F0100085F0100084F
:100110005F0100085F0100085F0100085F0100083F
:100120005F0100085F0100085F0100085F0100082F
:10013000DFF80CD000F040F8004800472F05000819
:10014000880400200648804706480047FEE7FEE78F
:10015000FEE7FEE7FEE7FEE7FEE7FEE7FEE7FEE777
:10016000990300083101000820F00040C10DC0F3E0
:10017000160040F400007F2901DA0020704796291C
:1001800003DCC1F19601C84070479639884070473A
:10019000002801DBC0F10040002901DBC1F1004172
:1001A00081427047002801DBC0F10040002901DBDB
:1001B000C1F1004188427047064C074D06E0E068F7
:1001C00040F0010394E8070098471034AC42F6D39E
:1001D000FFF7B2FF340500085405000800BFFEE732
:1001E0007047416170470161704700BFFEE700BF83
:1001F000FEE770477047704770B504460D4645B33B
:10020000062C24D2DFE804F003080E14191E08217E
:100210002548FFF7E8FF1BE04FF480712248FFF705
:10022000E2FF15E04FF400711F48FFF7DCFF0FE01D
:1002300040211D48FFF7D7FF0AE080211A48FFF749
:10024000D2FF05E010211848FFF7CDFF00E000BF06
:1002500028E0062C24D2DFE804F003080E14191E4F
:1002600008211148FFF7BDFF1BE04FF480710E48D5
:10027000FFF7B7FF15E04FF400710B48FFF7B1FF30
:100280000FE040210848FFF7AEFF0AE08021064852
:10029000FFF7A9FF05E010210348FFF7A4FF00E0E6
:1002A00000BF00BF70BD0000000C014010B500F0A1
:1002B00001F810BD0CB50020019000903348006893
:1002C00040F480303149086000BF3048006800F4D5
:1002D000003000900198401C0190009818B90198D6
:1002E000B0F5A06FF1D12948006800F4003010B1DA
:1002F0000120009001E0002000900098012843D1E7
:100300002348006840F01000214908600846006852
:1003100020F0030008600846006840F00200086012
:100320001A484068194948600846406848600846CD
:10033000406840F4806048600846406820F47C10C3
:1003400048600846406840F4E81048600846006885
:1003500040F08070086000BF0C48006800F000703A
:100360000028F9D00948406820F003000749486098
:100370000846406840F00200486000BF03484068FB
:1003800000F00C000828F9D10CBD0000001002405C
:10039000002002407047000010B51348006840F08C
:1003A00001001149086008464068104908400E499C
:1003B0004860084600680E4908400B490860084636
:1003C000006820F4802008600846406820F4FE00A1
:1003D00048604FF41F008860FFF768FF4FF000602F
:1003E0000449086010BD0000001002400000FFF842
:1003F000FFFFF6FE08ED00E010B50121880700F0D0
:1004000074F8002863D00121880700F06BF83049A8
:10041000304A127801EB021148682F49FFF7C2FEFB
:1004200006D22D482A492B4A127801EB0211486066
:100430002749284A127801EB021148682749FFF73B
:10044000A7FE06D225492248224A127800EB021064
:1004500041602348007880B91D491E4A127801EB9B
:1004600002114868FFF780FE4FF080418885012126
:1004700018480078FFF7C0FE1AE01549154A1278AF
:1004800001EB02114868FFF76FFE40F6C4110C1A29
:10049000142C00DA14244FF080418C8500210D4883
:1004A0000078FFF7A9FE0B480078401C0949087046
:1004B00008480078082802DB002006490870084830
:1004C000007808B9012000E000200549087010BD3F
:1004D000040000200000002000F01B450000FA434B
:1004E00001000020CA430282704730B50246002056
:1004F00000230024158A05EA0103958905EA010411
:1005000013B10CB1012000E0002030BD00BFFEE7B8
:1005100002E008C8121F08C1002AFAD170477047CC
:10052000002001E001C1121F002AFBD1704700200A
:10053000704700005405000800000020040000007F
:10054000100500085805000804000020840400007D
:08055000200500080000000076
:0400000508000131BD
:00000001FF
